:020000040000fa
:080000000002040000000000f2
:020000040000fa
:100400000fa120000eff27000e0188000000000051
:100410000c00070080132100010020000f000700de
:10042000000020000000e000020032000000020096
:100430000000000002100200000000000040da008e
:100440000000fe00000c20000000e000020032006e
:10045000002020009001880000000600a102880012
:10046000800078000000eb001a003700e2804000b6
:1004700054a0b4009101ba00e280400054a0b4003e
:100480009102ba00e280400054a0b4000002eb00e8
:10049000472bde00f507b200a6018800602ce100c2
:1004a00008003a000049eb000201e80002003900b0
:1004b0003420ec0002f0a0008301e900f9ff3e00c7
:1004c000040037006128e100010032000082eb00e7
:1004d000040007001101ba000200e000e3ff3a0047
:1004e0000000060004d0a300e20f49001c00390000
:1004f000810278003549ba000201e80002003900a3
:100500003420ec0002f0a0008301e9000f0032006b
:100510002549ba000201e800020039003420ec004d
:1005200002f0a0008301e900080032000400e000ae
:100530000600320015c9ba000201e80002003900c5
:100540003420ec0002f0a0008301e9008180e80083
:1005500054a0b4000300e000e2ff3a0000000600ef
:100560009102ba00055978008301e900f7ff3200d3
:10057000c82ade00055978008301e900f3ff320044
:100580000400e000f1ff320011d9ba00eeff37009d
:100590000040da000000fe008001eb00020037009e
:1005a000817178008301e800828f5100fcff3a00de
:0405b0000000060041
:020000040000fa
:020000040005f5
:0457f400ffff0000b3
:020000040000fa
:020000040005f5
:0457f800be6b000084
:020000040000fa
:020000040005f5
:0457fc007f3e0000ec
:020000040000fa
:10000800c8020000c8020000c8020000c8020000c0
:10001800c8020000c8020000c8020000c8020000b0
:10002800c8020000c8020000c8020000c8020000a0
:10003800c8020000c8020000c8020000c802000090
:020000040000fa
:020000040000fa
:1005b4005a83000026830000008300005e8300004d
:1005c40006000000ff09000001a10000011900005d
:1005d400012900004015000000260000ff00000073
:1005e400750800009540000081000000190100001a
:1005f4002940000091000000c00000002603000014
:1006040055000000530000004200000020000000dc
:1006140048000000490000004400000020000000e1
:10062400420000006f0000006f0000007400000032
:100634006c0000006f000000610000006400000016
:100644006500000072000000340300004d0000004b
:100654006900000063000000720000006f000000e9
:1006640063000000680000006900000070000000e2
:10067400200000005400000065000000630000003a
:10068400680000006e0000006f0000006c000000b5
:100694006f000000670000007900000020000000e7
:1006a400490000006e000000630000002e000000fe
:1006b40004030000090400000902000029000000ee
:1006c4000101000000c00000320900000400000025
:1006d40000020000030000000000000009210000e7
:1006e4001101000000010000221d000000070000ad
:1006f4000581000003400000000100000705000020
:10070400010300004000000001000000120100008d
:10071400100100000000000000080000d8040000e0
:100724003c00000002000000010200000001000083
:020000040000fa
:100734009ec0a9000080eb0070248800502488002b
:100744008000eb0051258800612588003125880050
:10075400412588008644a900f009200080248800ef
:10076400602488008804a80000a020004800de005f
:10077400c024880004a020006011b8004208dd00f5
:10078400040040000288be008100e800e48f5000ad
:10079400faff3a009424a8009624ef0094a4a90038
:1007a4009424a9004295200012417800830020007f
:1007b4008040eb0007003700532488008000fd00d0
:1007c40046e9b70047e9b70048e9b7008000fd00f3
:1007d400014178008ac4bf000038a300f6ff3a0044
:1007e4000200780054e9b700100020003049880066
:1007f400204988000000eb00c04a8800e04a8800d5
:10080400704a8800c4932000029420008000eb000a
:10081400b592200093922000011a78000119780003
:1008240001f07a0001f079000000e800e20f5000c6
:10083400f9ff3a0040a02000e0498800d0002000e1
:1008440050258800c09120001050880080c0b3005b
:1008540000eab70040c8b30001eab700010078001d
:100864004be9b700614a8800000006008000eb00f5
:10087400714a880001017800400720002a06070019
:100884008284a900000120000024880000000600e2
:100894008284a80000012000502488001000200059
:1008a400704a88000001eb008000eb005007200034
:1008b4001d0637002609e2001b003a001000200044
:1008c40030498800214980000100e00016003a0008
:1008d4002049880034c9bf00e24f500006003a00a6
:1008e400e04980000148780081ccb300e0498000f1
:1008f4001140980000000600e14f50000a003a0041
:100904002e29ef0081c0b300b0498000014878006f
:10091400c1912000b04980001100980001c8b300c3
:10092400b04980001140980000000600aac4bf002e
:100934000018a3000d003200c249800092409000cc
:1009440000c8b30080cf500007003a00e04980009f
:100954009040900040c8b30080cf500002003a009d
:100964006840400010419800aa24a9000008200013
:1009740050248800000006008081fb0003824100af
:100984000180fb00000042004200dd0002a02000c4
:1009940002014000124090000074a1001041980030
:1009a4000104e00003003a000094200002327800c1
:1009b4000300370083804100c09320008230780018
:1009c400124090000064a00010419800000006004e
:1009d400889fbe008a1f7800004478000145780093
:1009e4008184fb000938a300020032008040eb0040
:1009f400e1ff07000928a3000300320011c0b3007f
:100a040008407800dcff07000880fb00000040007d
:100a1400a14a20000af078004f0578004f04be0078
:100a2400000006000104e000040032000080fb0026
:100a340000004000c1932000030037000080fb0049
:100a44000000400001942000608278000400e0006f
:100a540002003a00040078000000060014409000f0
:100a64000064a2001042980012029800034a780021
:100a7400144090000044b2001042980014409000ca
:100a840081c8b3000140700010429800040078004f
:100a9400000006000004e0000c003a0081c0b3002e
:100aa400b049800001487800c1912000b04980001d
:100ab40011009800c1c8b300b049800011409800eb
:100ac400e8c05000e04980000a0037000080fb00c5
:100ad400000040008180fb00010040004200dd0076
:100ae40001a02000010040009040900042c8b300e3
:100af40082c0700011409800000006008040780019
:100b040094c4bf000058a3000e0032000181fb0012
:100b140002014100c09320000001410092017800cd
:100b24001300be0004042000050020000000620041
:100b3400010020008089be001200780010186a00ad
:100b440010906a0000000600b14a800083c0b30020
:100b5400e78f500009003e008141780035c9bf008d
:100b640002003a0010c0b30003003700e14f500008
:100b740002003a0020c0b30035e9b7000380fb004f
:100b840000805000b04a8800e049800003487800a3
:100b940040912000904988005409ab0002003200c3
:100ba4000341780012003700034178008041eb00d4
:100bb4000600370090498000914a8000315878003f
:100bc40090498800914a88000241e900834f51000e
:100bd400f8ff3a000000060090498000914a800026
:100be4003158780090498800914a88000241e90010
:100bf4000204e000f8ff3a00000006000000eb00e9
:100c0400c04a8800e04a88004093200021c0b30015
:100c140090cf100009003a0081c0b300b0498000b1
:100c24000148780041912000b049800011009800eb
:100c340081ccb300b04980001600370022c9bf0040
:100c44000080fb003192200091407800c808dd004c
:100c540080807000b04a8000808f5000070031000f
:100c640021922000914078008180fb0023c9bf00bd
:100c74004800dd0001007000b04a8800b2ff0700a0
:100c840041912000e04980001100980081ccb3001c
:100c9400e0498000114098000000060094a4a900d7
:100ca40054e9ab0018003a004649e20009003d004f
:100cb40020c0b30034e9b7005c09e20001003a0047
:100cc400ceff07000000eb0020498800304988006f
:100cd4000000060081c0b300b049800001487800dc
:100ce400c1912000b049800011009800c1c8b30030
:100cf400b049800011409800e8c05000e0498000ed
:100d040011409800000006001c49e2000b003d0061
:100d140010c0b30034e9b7005809e20001003a00fa
:100d2400b6ff07000000eb00204988003049880026
:100d34005a09e20012003a00defe370020c0b30078
:100d440034e9b70081c0b300b0498000014878009d
:100d5400c1912000b04980001100980041c8b3003f
:100d6400b0498000114098000000eb002049880041
:100d7400304988005a09e20001003a00cdfe07001c
:100d840000000600c0498000904178007194200062
:100d9400914078008180fb0048c9bf004800dd0015
:100da400810070000380fb00810f500001003600b9
:100db400814178000380fb000080500047e9b700c0
:100dc4004800de0048e9b7000002eb00469120002d
:100dd400f50f20000f003700419420009140780067
:100de4008180fb0045c9bf004800dd0001007000a0
:100df4008280fb0061587b00850060008000fd005c
:100e040044e9b7008000fd004800de0045e9b70072
:100e14000402e80004417800834f5200eeff3900d9
:100e240071942000914078008180fb0048c9bf0084
:100e34004800dd00010070000f00320081c0b300e3
:100e4400b04980000148780041912000b0498000f9
:100e540011009800c04980001040900081ccb3007c
:100e64000068a3000100320081c8b300b0498000cb
:100e7400114098000000060081c0b300b049800012
:100e840001487800c1912000b04980001100980009
:100e940041c8b300b04980001140980091942000eb
:100ea400914078008180fb004ac9bf004800dd0002
:100eb40001007000010032000000010046e9a900b1
:100ec4005a09e20001003a007afe07000000060019
:100ed400881f780054e9a8000004eb006825880006
:100ee400020120008800780000a02000a9fd07006e
:100ef4009424a80008007800b39220008040eb00fe
:100f04009292200001f07900017079000000e8005d
:100f1400e20f5000fbff3a00010078003ae9b70005
:100f24009424a90040a02000e049880000a02000eb
:100f3400c0498800b04988001ec9bf004be9b7000a
:100f440002003a00000120000500370012002000d2
:100f5400b194200010002000730407000002200058
:100f6400604a88004f04780000000600c191200008
:100f74009140780000c8b30080cf500027003a00a9
:100f840000ccb30054e9b7001fc9bf00e24f5000c2
:100f940008003200e34f500011003200e14f5000ce
:100fa4001d003a0080382800904a88002001200063
:100fb400150037001ec9bf000080fb000000400080
:100fc400012e2800e0807800914a8800214090009a
:100fd40056e9b7003140900057e9b7000000060019
:100fe4001ec9bf00e24f500009003e001ec9bf00e9
:100ff4000080fb0000004000a12d280060807800e4
:10100400904a88001080fb00b04a88000000060067
:101014005469ef00000006005469ef000000060068
:101024000040eb0014e9b70015e9b7001cc9bf0084
:101034007f006000e10f50000b003200e20f50000f
:101044000b0032000000e0001c003a0054e9a80044
:101054001409a800804a8000e10f500017003a00ec
:101064001429a8001500370054e9a800130037001c
:1010740054e9a8002049e2000500350020c9bf005a
:101084006f0060000000400001942000040037005d
:1010940020c9bf006f00600000004000c193200021
:1010a400608078000140280010806000810f5000ab
:1010b40002003a0010c0b30014e9b70054e9ab00d1
:1010c4000500320040912000904a88005409a8008d
:1010d40020c0b30056e9b70000000600409320008a
:1010e40021c0b30090cf100001003a0025ff370063
:1010f4003469ef002e09e2000a003a0081c0b3000f
:10110400b049800001487800c1912000b0498000b6
:1011140011009800c1c8b300b04980001140980084
:10112400000006002e29ef0000000600881f78004a
:10113400e0498000104090004600de006104600039
:10114400604a8000e80f500008003a001ec9bf0042
:101154000080fb00b0248800000120009604e20017
:1011640001003a0040002000604a880040932000bb
:1011740011c0b30090cf100011003a00409120003c
:10118400e1498000900098006ffe07005093200012
:1011940021c0b30090cf100002003a0041c8b30050
:1011a4000400370081c8b3000804e00001003a00dd
:1011b40081ccb300e0498000114098000c00370056
:1011c4004649e20009003d009194200091407800d6
:1011d4008180fb004ac9bf004800dd0001007000a7
:1011e400010032000000010046e9a9003469ef0063
:1011f4004f047800000006001ec9bf00e14f5000f4
:101204000b003a001cc9bf007f40600008003a0090
:1012140054e9a8001dc9bf00e34f500003003a0081
:1012240010002000804a8800010037005029ef0098
:101234001e49e20067003a001cc9bf007f406000fd
:10124400e24f500063003a0020c9bf006f406000c5
:101254006000320020c9bf006f006000e10f500041
:101264005c003c00614a800000022000808f500036
:1012740058003a0054e9a8002049e200090035006a
:1012840020c9bf006f0060000000400001942000ee
:10129400e081780020c9bf006f00600091922000b7
:1012a4000800370020c9bf006f0060000000400044
:1012b400c1932000e081780020c9bf006f00600066
:1012c400b192200060c178002049e2000500350099
:1012d40020c9bf006f00600000004000019420009e
:1012e4000400370020c9bf006f0060000000400008
:1012f400c193200003b078001dc9bf00e34f500024
:1013040012003a001300e0000b003d002049e20007
:101314000400350020c9bf006f00600091922000d6
:101324000300370020c9bf006f006000b1922000a5
:10133400010040001014a0001340900041c8b30005
:101344000140700090419800000006000218a300bc
:1013540002003a001300e00014003d002049e200be
:101364000400350020c9bf006f0060009192200086
:101374000300370020c9bf006f006000b192200055
:10138400010040001014a10013409000b047b200c7
:101394000064a0009041980022002000830078009f
:1013a4005000200060030700040037001340900041
:1013b400b047b2000064a0009041980020c9bf006b
:1013c4006f00600000004000a14a200001004000be
:1013d4001014a100000006001cc9bf000046b200a2
:1013e40032003a001dc9bf000080fb00010020004c
:1013f400eb0f5000e08f58002c003e00006001000d
:10140400130037001300370028003700110037009d
:101414002600370006003700090037001f00370098
:1014240009003700070037000b00370014003700ad
:1014340054e9a80080002000604a880000000600eb
:10144400cafe3700a2fe3700b09420000600370021
:10145400f3fe370068ff370020c9bf000080fb009f
:10146400a193200001004000904a88005409a8007c
:1014740010c0b30056e9b70054e9a8000000060004
:1014840054e9a80020c9bf000080fb00a1932000fc
:10149400e291200012f07800000006000001eb0049
:1014a4008000eb00200020001f030700000006005e
:1014b400881f78008041eb000300780035e9b7000d
:1014c4000004eb00d84a8800c84a8800e84a88002b
:1014d400784988000300780034e9b700e1498000c6
:1014e40011409000f2c7b3000240600090409800a1
:1014f400e149800011409000024060009040980053
:10150400b149800011409000024060009040980072
:101514008001fd0054e9b7008001fd00b84a88004d
:101524008001fd0046e9b70047e9b70048e9b70084
:101534008001fd00a8ff07000801780088007800fa
:1015440030002000f8020700d4fd07004f047800a3
:1015540000000600d0c2b30028e9b70031c9bf00bb
:101564000080fb00000178000220a1000200e000de
:1015740019003a00c00fb20001a020000100400091
:10158400c0498800b049880010409000c043b200b0
:1015940041c3b300814f50000e003a00c3912000b4
:1015a400c1498000110090001040780000f17900da
:1015b400110090000000e800900098000201e8008b
:1015c400e80f5100f6ff3a00c0498000130098006c
:1015d400b7ff3700c1fe3700e80f510001003a00a1
:1015e400d2fe070000000600881f78004c09e200c4
:1015f40010003a000000eb00a0248800602488005a
:1016040030258800402588008644a900f009200080
:101614008024880060248800010037009404a80016
:1016240094c4bf000008a300fcff32001000200097
:10163400604a8800604a8000e10f500009003a00c7
:1016440094c4bf000068a30006003a008aa4ef0017
:101654008c24ef008c04a8008c84a80020002000b7
:10166400604a880080c4bf000048a300060032001e
:1016740082c4bf000048a300030032000001200020
:101684000024880079fc070088c4bf000018a30068
:1016940055003a008ac4bf000008a30008003200c5
:1016a4008cc4bf000008a3000500320020fc070022
:1016b40040002000604a8800100020005024880068
:1016c4008ac4bf000048a300060032008cc4bf00d7
:1016d4000048a300030032006dfc07000001200055
:1016e400502488008ac4bf000028a3000f003200e1
:1016f4008cc4bf000028a3000400320012002000a4
:101704008000eb0030072000870207004000200023
:101714005024880028c9bf00030032000040e900bb
:1017240028e9b70001003a0062fc07008a44e2009d
:1017340005003d008cc4bf0001c8b3000140600037
:101744000100320079fc07008ac4bf000018a3001e
:101754000a0032008cc4bf000018a3000700320046
:10176400120020008000eb00f0ff27006e0207004b
:101774008ea4ef002000200050248800604a8000de
:10178400e30f5000180036008cc4bf000038a300db
:101794001500320048c0b3008ac4bf000038a3005b
:1017a400110032009024800031e9b7000080fb0072
:1017b4004400de0030e9b700810020005124880095
:1017c4000004e00002003a0062ff07000400370052
:1017d4000001eb00119320002007200052020700b3
:1017e4000844e900ecff3a008ec0a9004f047800d9
:1017f40000000600f502a900e4c2a9007860a9006f
:10180400cbc2bf000068a300fdff3a00dbc2bf00eb
:101814000038a300faff3a00e2c2bf000058a30058
:10182400f7ff3a00f3c2bf000018a300f4ff3a0028
:101834000014040000000000000006000000eb009b
:101844001027880020278800302788005027880028
:1018540060278800c9c2a800d962a800e0a2a80035
:10186400f122a800f102a900e0c2a900f502a90032
:10187400e4c2a900f0c2a800c8a2a800e862a900b6
:10188400ec62a900e822a900e082a900ec22a900e8
:10189400e482a800f042a800f062a8007860a900e1
:1018a400e8e2a800000006000000eb00204b8800de
:1018b400104b880012002000024b880091cab3002c
:1018c4008000fd0012e9b7008000fd0001802a00bd
:1018d4007148880021002000814888000001fd0033
:1018e400c4e8b7000001fd000de9b700c6a8ef0089
:1018f400c8a8ef00cae8b70000000600cfff070041
:10190400f502a80044a7a800802520000000e900f3
:10191400e10f4000fdff3a007860a80084fb070057
:10192400e1ff0700f502a80000000600c008e2007d
:1019340002003a000071220000468800024680003e
:101944000201e90002468800614a8000000220008a
:10195400808f500008003a005e09e2000400320063
:101964000200e00005003a00e4c2aa0000000600fc
:10197400e4c2a80000000600e4c2a90000000600ba
:101984000cc9bf000080fb00010020004a09dd00f3
:10199400c600de00810071004a00dd00220424003c
:1019a400023b88000181fb00a20288000081eb0059
:1019b4000208bb001000fc0050052000303b8800ea
:1019c400a00a2000303b880061e7a8000000000066
:1019d4000000000001c8b30061c7bf0001406000ff
:1019e400fdff3a000000060030002400003b8800a0
:1019f400c38c200034468000454680001600370022
:101a04000080fb00010020000000520081805a0089
:101a1400a10288001308bb00130190000288bb00d8
:101a24001000fc0050052000303b8800a00a200074
:101a3400303b880061e7a8000000000000000000bf
:101a440001c8b30061c7bf0001406000fdff3a0058
:101a5400cae8ed00e4814100cac8bf00e8ff3a00cb
:101a640061c7a900000006000400fa00e0bf9f005f
:101a7400f1bf9f00a10280007fb89700a0028800f8
:101a84006fb897009081ba001001ba00a1028800d3
:101a94000200be000080fa0000000600889fbe001d
:101aa4000d49e20022003a00104b80000000e000e3
:101ab40003003200104090000004e00043013500b0
:101ac400204b80000000e000030032001040900032
:101ad4000004e0003d0135000000eb000388200015
:101ae4000280200001042000e27178000000e80078
:101af400810f5000fcff3a00804178008040eb00e9
:101b040010c0b300c7fb0700204b880010c0b3000f
:101b14000de9b700008420000041eb00018820009b
:101b240002587800810f500028013200fcff370072
:101b340080c8bf00e54f50007100320006003e002f
:101b4400e34f5000490032005b003e00e24f50007a
:101b54001e013a0006003700e74f5000be00320075
:101b6400b8003900e84f500018013a00100137005e
:101b740024c0b3000400780040e8b70080c3b30079
:101b840041e8b7000400780042e8b70010c0b30091
:101b940043e8b7008041eb000300780044e8b70055
:101ba40040c1b30045e8b7008001fd0046e8b70036
:101bb40047e8b7008001fd0000c02e00f1ff2f00b0
:101bc40076488000874880000600400087804800ef
:101bd40048e8b7004801de000200780049e8b70091
:101be400010078004ae8b7004808de004be8b70077
:101bf40080c0eb00010078004ce8b700c448e20064
:101c040013003a0030c0b3004ce8b70080cfb300f3
:101c14004de8b700b0cab3004ee8b700040078003e
:101c24004fe8b7000300780050e8b70080c0b30065
:101c340051e8b7008001fd0052e8b70053e8b7004f
:101c440054e8b7008001fd000100780055e8b700b2
:101c5400104b80000000e000cd00320010409000e6
:101c64000004e000d9003500c90037008148e200d3
:101c740008003a00a0cab30012e9b70087bf2a00df
:101c8400774888002700200087488800c468ef0050
:101c9400c500370090cab30012e9b70000802a00db
:101ca40070488800200020008048880010c0b300dd
:101cb400c4e8b700bc00370050c0b3000ce9b7005b
:101cc40004003700e4c2aa002dff070046fe070007
:101cd4000c69ec00c1902000914078008180fb00e9
:101ce40012c9bf000080fb000000e800808f500094
:101cf400f4ff3500e4c2a80061c7a900aa003700b8
:101d0400e4c2a9003046800041468000e10f400053
:101d1400e08f48000e003a001188200091407800be
:101d24008180fb0082c8bf004800dd000101700013
:101d340031882000914078008180fb0084c8bf0076
:101d44004800dd0081017000324688004346880067
:101d540011882000914078008180fb0082c8bf0078
:101d64004800dd00010170003188200091407800b6
:101d74008180fb0084c8bf004800dd008101700041
:101d84000004eb003046800041468000820f500082
:101d9400838f58002300320083003700a48c200076
:101da400144278008481fb00838141008180fb0020
:101db40080032000010050002200200011000900cf
:101dc4000200d8008580fb000100400000004000b4
:101dd40081882000010040009080fb0010409000aa
:101de4004800dd0001007000c18c200080b1780043
:101df4000442e80004007800cae8b70036468000d0
:101e04004746800061034300e0834b003646880068
:101e140047468800fc4f520001003a00f2fe0700da
:101e24000804e80088427800518820009140780036
:101e34000180fb000000d100804f5400d7ff39001f
:101e440059003700e4c2a800e7fe0700c6a8ef0067
:101e5400c8a8ef0054003700104b80000000e000d9
:101e640003003200104090000004e00057003500e9
:101e740070c0b30040e8b70011882000914078009a
:101e84008180fb0082c8bf004800dd0001017000b2
:101e940031882000914078008180fb0084c8bf0015
:101ea4004800dd00810170000200780041e8b700bd
:101eb4004810de0042e8b7000300780043e8b700aa
:101ec4004818de0044e8b70085c8bf0045e8b700fd
:101ed4008044eb00290037001388200093417800e8
:101ee4008381fb0022882000124178004811dd0024
:101ef4000300710033882000934178008381fb0044
:101f040042882000124178004811dd0083007100ee
:101f14000981fb000300200000004100818049008a
:101f2400d1fe07008981fb0052882000124178000d
:101f34000281fb000201d1008281510083814100b2
:101f44000404200003024200088420000802420026
:101f5400f50f2000054a60004801de001242980097
:101f6400858360002304b0008881410085c9630033
:101f74004838de009041980089c4e80085c8bf0055
:101f84000080fb000000d10080cf5400d2ff390054
:101f940003c4b3000284200011c0b30001407800e0
:101fa400a0fa0700104b88000d69ef000700370006
:101fb4000000eb00a0248800000000000000e800fe
:101fc400e10f4000fcff3a000afe07004f04be0088
:101fd400000006006009e2000100320053fe070021
:101fe400604a8000ff0f50000400360088c4bf0020
:101ff4000018a30001003a00a8fe07000000060034
:102004000efe0700cbc2bf000068a30009003a001f
:10201400dbc2bf000038a30006003a00e2c2bf00e2
:102024000058a30003003a00f3c2bf000018a30045
:1020340001003200effd070030fe07006afd0700d3
:10204400e4ff0700cbc2bf000068a30009003a0008
:10205400dbc2bf000038a30006003a00e2c2bf00a2
:102064000058a30003003a00f3c2bf000018a30005
:10207400f2ff3200dffd0700f0ff3700000006002a
:102084000000060000000600000006002f003700d4
:1020940000000600d1c1b30010c0b3004cfa070021
:1020a40003c4b300028020008040eb0010c0b300e2
:1020b4005cfa0700204b880000000600804a80007c
:1020c400e10f500017003a00704a8000e10f500001
:1020d40014003a008824a9008000eb00714a8800ab
:1020e40000e12000104688000100780001e1200092
:1020f4000000e800810f5000fdff3a009444a8005e
:1021040080702000104688000000eb0081702000e1
:102114000000e800810f5000fdff3a00c228ef00e4
:102124009444a90000000600e10f500003003200af
:10213400e30f500004003a0002003700d5ff070007
:1021440001003700d1ff0700100005001cc9bf00c3
:102154007f406000e14f500043003a002049e20014
:1021640041003a001dc9bf00e64f500017003a0075
:10217400f1912000914078007b40400080cf5000d6
:10218400040032000040e80080cf50000f003a0005
:1021940008003700b094200011c0b30090cf1000a5
:1021a4000a003a0000372800904a88009000200076
:1021b40003003700202e2800904a8800d001200018
:1021c400b04a880000ccb30054e9b7001cc9bf0072
:1021d4000046b20001c2b300814f500022003a0011
:1021e4001dc9bf00e34f50001400320003003e003d
:1021f400e24f50001c003a0005003700ea4f50003f
:1022040009003200eb4f500017003a00120037006b
:1022140070962000904a880010002000b04a880080
:1022240010ccb3000a00370000c8b30054e9b7006b
:102234001fc9bf0067e9b7000000060060962000d0
:10224400904a880010002000b04a880010c8b300eb
:1022540054e9b7000000060000c8b30054e9b70011
:0c2264001ec9bf0066e9b70000000600bc
:020000040000fa
:10227000140900004a00000080000000000a00006d
:10228000100000008000000066090000020000004d
:10229000800000005e0900000800000082000000cd
:1022a000000001000000000000000000c008000065
:1022b000540000008000000000080000c000000082
:0822c000800000000000000096
:00000001FF
