:020000040000fa
:080000000002040000000000f2
:020000040000fa
:10000800c8020000c8020000c8020000c8020000c0
:10001800c8020000c8020000c8020000c8020000b0
:10002800c8020000c8020000c8020000c8020000a0
:10003800c8020000c8020000c8020000c802000090
:020000040000fa
:020000040000fa
:100400000fa120000eff27000e0188000000000051
:100410000c000700e08e2100010020000f00070003
:10042000000020000000e000020032000000020096
:100430000000000082100200000000000040da000e
:100440000000fe00000c20000000e000020032006e
:10045000002020009001880000000600a102880012
:10046000800078000000eb001a003700e2804000b6
:1004700054a0b4009101ba00e280400054a0b4003e
:100480009102ba00e280400054a0b4000002eb00e8
:10049000472bde00f507b200a6018800602ce100c2
:1004a00008003a000049eb000201e80002003900b0
:1004b0003420ec0002f0a0008301e900f9ff3e00c7
:1004c000040037006128e100010032000082eb00e7
:1004d000040007001101ba000200e000e3ff3a0047
:1004e0000000060004d0a300e20f49001c00390000
:1004f000810278003549ba000201e80002003900a3
:100500003420ec0002f0a0008301e9000f0032006b
:100510002549ba000201e800020039003420ec004d
:1005200002f0a0008301e900080032000400e000ae
:100530000600320015c9ba000201e80002003900c5
:100540003420ec0002f0a0008301e9008180e80083
:1005500054a0b4000300e000e2ff3a0000000600ef
:100560009102ba00055978008301e900f7ff3200d3
:10057000c82ade00055978008301e900f3ff320044
:100580000400e000f1ff320011d9ba00eeff37009d
:100590000040da000000fe00800178000200370011
:1005a00081597800040178000202e900e00f51004f
:0805b000fbff3a000000060009
:020000040000fa
:1005b8001201000010010000000000000008000007
:1005c800d80400003c000000020000000102000006
:1005d80000010000090200002900000001010000dc
:1005e80000c0000032090000040000000002000002
:1005f80003000000000000000921000011010000b4
:1006080000010000221d0000000700000581000015
:10061800034000000001000007050000010300007e
:10062800400000000100000004030000090400006d
:10063800340300004d000000690000006300000062
:10064800720000006f0000006300000068000000f6
:100658006900000070000000200000005400000045
:100668006500000063000000680000006e000000e4
:100678006f0000006c0000006f00000067000000c1
:100688007900000020000000490000006e00000012
:10069800630000002e000000260300005500000043
:1006a8005300000042000000200000004800000045
:1006b8004900000044000000200000004200000043
:1006c8006f0000006f000000740000006c00000064
:1006d8006f00000061000000640000006500000079
:1006e8007200000006000000ff09000001a10000e0
:1006f8000119000001290000401500000026000033
:10070800ff0000007508000095400000810000000f
:10071800190100002940000091000000c0000000fd
:10072800ee820000188300001c8300005083000044
:020000040000fa
:100738000200fa009ec0a9000080eb007024880027
:100748000080eb00502488000000eb005025880052
:10075800220020008000eb00c04a20008cff070028
:100768000000eb00302588000000eb0040258800e1
:100778008644a900f009200080248800f0092000a0
:10078800602488008804a80000a020004800de003b
:10079800c02488000040eb00004f780008003700b4
:1007a8009e4078000180fb00c200dd0000a0200010
:1007b800008140006000b8000089be001e4fe800bc
:1007c8001e407800e34f5000f5ff36009424a8003f
:1007d8000000eb00b024880094a4a9009424a90088
:1007e8000c00370080002000502488000040eb00f7
:1007f80028e9b7000040eb002ee9b7002fc9bf0079
:10080800604060002fe9b70030c9bf006040600059
:1008180030e9b7005024800068006000e00f500005
:10082800f0ff3a0010002000304a88001000200035
:10083800404a88000000eb00504a88000000eb00a6
:10084800604a88000000eb00c04988000040eb00c7
:10085800004f78001b0037009e4078000180fb00a5
:100868008000400000922000008040008000eb00e3
:10087800010878009e4078000180fb00800040005d
:10088800c0912000008040008000eb000108780043
:100898001e4078008080fb00e093200080804000ac
:1008a8000040eb00804878001e4078008080fb0004
:1008b80000942000808040000040eb0080487800d1
:1008c8001e4fe8001e407800e14f5000e2ff36005e
:1008d80040a0200000498800d00020005025880052
:1008e800e09420001050880080c0b30000eab700f0
:1008f80040c8b30001eab7000040eb0016e9b700b2
:100908000000eb00a04888000080fa000000060004
:100918000200fa00a0488000e00f500015003a00dd
:100928000000eb00a02488000000eb006024880091
:100938000000eb00302588000000eb00402588000f
:100948008644a900f009200080248800f0092000ce
:1009580060248800010037009404a800a0248000c7
:1009680061006000e00f5000fbff32001000200023
:10097800a0488800a0488000e10f50000d003a0010
:10098800a12480000004200000806000e00f5000d7
:1009980008003a000080eb00502488000000eb00bb
:1009a800602488008c04a8008c84a8002000200003
:1009b800a04888000024800070006000e00f50000c
:1009c800070032001024800070006000e00f500023
:1009d800030032000001200000248800be03070045
:1009e8004024800062006000e00f500002003200e6
:1009f8008ec0a90075003700502480006100600097
:100a0800e00f50000900320060248000610060009f
:100a1800e00f50000500320045ff070040002000ad
:100a2800a04888001000200050248800502480002e
:100a380070006000e00f5000070032006024800062
:100a480070006000e00f50000300320096030700ba
:100a580000012000502488005024800064006000b9
:100a6800e00f500014003200602480006400600031
:100a7800e00f500004003200120020008000eb005c
:100a88003007200037090700400020005024880064
:100a980042c9bf00e04f50000300320042c9bf0006
:100aa8000040e90042e9b70042c9bf00e04f5000ea
:100ab80001003a00110107005124800000082000bd
:100ac80000806000e00f50000600320061248000c2
:100ad8000008200000806000e00f50000100320094
:100ae8005a0307005024800062006000e00f5000a5
:100af8000c0032006024800062006000e00f5000ab
:100b080008003200120020008000eb00f0ff2700f0
:100b1800140907000080eb007024880020002000e2
:100b280050248800a0488000e30f500002003e00d7
:100b38008ec0a9002500370060248000680060008e
:100b4800e00f5000200032000040eb00004f78001a
:100b5800180037005024800068006000e00f500043
:100b68001800320090248000004078003ae9b7006d
:100b78003ac9bf000080fb004400de000040780056
:100b88003be9b70080002000502488003bc9bf0023
:100b9800e04f500002003a005b03070004003700f2
:100ba8000001eb00a193200020072000ed080700ba
:100bb8001e4fe8001e407800e34f5000e5ff360066
:100bc80001003700000000008ec0a9000080fa0074
:100bd800000006000400fa002047980031479800fa
:100be8003e4090000080fb0068006000e00f50006d
:100bf800030032008040eb002e40900010010700f7
:100c08003e4090000080fb0064006000e00f500050
:100c18000300320011c0b3002e4090000801070005
:100c2800a14a20002e4090000080fb0000004000f8
:100c3800008f40001e007800be40900001487800f8
:100c48000080fa00000006000800fa00204798001b
:100c58003147980022079800634798003e4090006b
:100c6800e04f5000070032002e4090000080fb004b
:100c7800800040000092200000804000100f7800a3
:100c8800060037002e4090000080fb0080004000e6
:100c9800c091200000804000100f78001e007800ee
:100ca800e00f500002003a000000eb00340037006b
:100cb8001e0078009040900000c4b30000c0680097
:100cc8009e00780090409800ae0090001e007800ca
:100cd800110098001e007800ee409000014878004e
:100ce8001e007800104090000044b2009e0078007a
:100cf800904098001e0078009040900080c8b30093
:100d080000c070009e007800904098003e4090001f
:100d1800e04f50000d003200019220002e4090005c
:100d28000080fb000000400080804000029220000c
:100d38002e4090000080fb000000400000004100b1
:100d480010407800804878000c003700c1912000de
:100d58002e4090000080fb00000040008080400092
:100d6800c29120002e4090000080fb00000040004f
:100d78000000410010407800804878001e0078008c
:100d88000080fa00000006000400fa0020479800de
:100d9800314798002e409000e04f50000d003a0077
:100da800d148800080c0b30080487800d0488000d7
:100db800e194200011009800d1488000c0c8b30019
:100dc800904098000149800040c8b30090409800c6
:100dd800100037002e4090000080fb00000040000b
:100de800800078003e4090000080fb0000804000ba
:100df800c200dd0000a02000008f40001e00780027
:100e08009040900040c8b30000c070009e00780079
:100e1800904098000080fa00000006000200fa00e6
:100e2800004f7800a12480000002200000806000ac
:100e3800e00f50002f0032009e4078000180fb0038
:100e480080004000009220000080400010027800de
:100e58009e4078000180fb00800040000092200046
:100e680000804000100078001001be00000420003f
:100e780001002000820278000301780080017800d8
:100e880001007800838262000000610001002000f8
:100e9800c000dd00000020000001be006128b8008d
:100ea8000001710081817100028abe009e407800b5
:100eb8000180fb008000400000922000008040007c
:100ec800100278009e4078000180fb0080004000fe
:100ed8000092200000804000100078001001be0041
:100ee80000042000010020000000690081806900e2
:100ef800008abe000080fa00000006000000fa0028
:100f0800304a8000e00f50001f003a001000200017
:100f1800304a8800404a8000e00f50001a003a002a
:100f280010002000404a880025c9bf00e24f500049
:100f380007003a00014980000040eb008048780033
:100f48000149800080ccb300904098000e00370023
:100f580025c9bf00e14f50000b003a000000eb002c
:100f6800e0498800d148800080c0b30080487800fc
:100f7800d0488000e194200011009800d1488000fa
:100f880000c8b300904098000080fa0000000600f6
:100f98000000fa000000eb00504a88000000eb0057
:100fa800604a880025c9bf00e24f50000a003a0095
:100fb800d148800080c0b30080487800d0488000c5
:100fc8006195200011009800d148800080ccb300c2
:100fd800904098001800370054c9bf008080fb007b
:100fe80055c9bf000080fb004800dd00010070000b
:100ff8008000780050498000808f50000700310041
:1010080054c9bf008080fb0055c9bf000080fb00a9
:101018004800dd0001007000504988008100070089
:101028000049800061952000110098000149800066
:1010380080ccb300904098000080fa0000000600c1
:101048000400fa00204798003147980000a02000cb
:10105800000f78002e4090000080fb000000400048
:10106800800078003e4090000080fb000080400037
:101078004200dd001e0f40001e00780010017800bd
:10108800f1ff270081006100010878003e409000d0
:10109800e04f500007003a002e4090000080fb000f
:1010a80080004000c0912000008040001e087800a9
:1010b800060037002e4090000080fb0080004000b2
:1010c80000922000008040001e0878001e00780072
:1010d80010017800010024008100710001087800e7
:1010e8000080fa00000006000000fa0094a4a9009d
:1010f800414980000008200000806000e00f500097
:101108001e003a00e19220009140780000c8b30028
:1011180000c06000e04f50000b00320020c0b30058
:1011280025e9b700604a8000e00f500001003a004e
:1011380097ff07000000eb00404a88000000eb0022
:10114800304a880035003700d148800080c0b3009d
:1011580080487800d0488000e19420001100980071
:10116800d1488000c0c8b300904098000149800071
:1011780040c8b3009040980028003700e194200050
:101188009140780000c8b30000c06000e04f5000f4
:101198000f00320010c0b30025e9b700504a8000a4
:1011a800e00f500001003a0079ff07000000eb0053
:1011b800404a88000000eb00304a8800204a80003e
:1011c800e00f500015003a004cff070013003700ed
:1011d80020c0b30025e9b700d148800080c0b30023
:1011e80080487800d0488000e194200011009800e1
:1011f800d148800040c8b300904098000000eb0040
:10120800404a88000000eb00304a8800204a8000ed
:10121800e00f500001003a0038ff07000080fa0094
:10122800000006000200fa0080c0b300004f7800fa
:1012380050498000e70f50000d003e0050498000e3
:10124800004f780024c9bf00e04f500003003a0067
:1012580010c0b30024e9b7000500370024c9bf0057
:10126800e14f500002003a0020c0b30024e9b70063
:10127800514980001e4178000280fb000080500028
:1012880050498800004980001e4878006095200079
:10129800a04988004049800061006000e00f5000cc
:1012a80017003a0009003700a24980003149800040
:1012b80011407800004978000200e800a049880041
:1012c8000100e800304988001e4fe9001e40780000
:1012d800e04f5000f4ff3a000c003700a2498000ac
:1012e8003149800011407800004978000200e80088
:1012f800a04988000100e800304988001e4fe90035
:101308001e407800e04f5000f4ff3a000080fa00d9
:10131800000006000200fa00c0488000104f780064
:101328001e4078008080fb002fc9bf000081fb00b1
:1013380030c9bf000080fb004800dd0002007000db
:10134800808f5000070036002fc9bf008080fb0047
:1013580030c9bf000080fb004800dd0001007000bc
:10136800004f78002fc9bf008080fb0030c9bf0044
:101378000080fb004800dd0001007000800078005c
:101388001e4178000280fb0080805000f00f200092
:10139800008160002fc9bf006040600002407000fb
:1013a8002fe9b700c808de0030c9bf006040600000
:1013b8000140700030e9b7000040eb00104798008a
:1013c8001c0037002cc9bf008080fb002dc9bf005e
:1013d8000080fb004800dd000100700080007800fc
:1013e8001e4090000081fb00609520000000410035
:1013f80010407800804878008100e800f00f200055
:10140800008160002cc9bf0060406000024070008d
:101418002ce9b700c808de002dc9bf006040600095
:10142800014070002de9b7001e4090000040e80020
:10143800104798001e4090009e4f5000e1ff390071
:101448002fc9bf008080fb0030c9bf000080fb00af
:101458004800dd0001007000e00f50001400320069
:10146800d148800080c0b30080487800d048800010
:101478006195200011009800c04880009000780015
:101488000000240000806000e00f500004003a00d3
:10149800d148800080ccb3009040980021003700ec
:1014a800d148800080c8b300904098001d003700e4
:1014b800d148800080c0b30080487800d0488000c0
:1014c800e194200011009800d148800040c8b30082
:1014d8009040980031c9bf008080fb0032c9bf002e
:1014e8000080fb004800dd0001007000e00f5000a4
:1014f8000700320031c9bf008080fb0032c9bf003d
:101508000080fb004800dd000100700000000100c1
:101518002ee9a900204a8000e00f500001003a009f
:1015280076fe07000080fa00000006000200fa00bc
:1015380028e9a800220020008000eb00c04a200013
:1015480013fc0700020120008000eb0000a020002f
:101558000ffc07009424a8000040eb00004f78001f
:101568000d0037001e4078008080fb00e0932000cb
:10157800808040000040eb00804878001e407800e2
:101588008080fb0000942000808040000040eb0039
:10159800804878001e4fe8001e407800e14f500058
:1015a800f0ff3600120020008000eb007091200050
:1015b800f7fb07009424a90040a0200000498800f8
:1015c80000a02000c0488800c0488000d04888009b
:1015d80050c9bf0016e9b70016c9bf00e04f500058
:1015e80003003a0000012000a048880006003700e8
:1015f8001200200061912000100020005906070009
:1016080000022000a04888000080fa0000000600c0
:101618000000fa00e19420009140780000c8b3006f
:1016280080cf500036003a0000ccb30028e9b7005c
:1016380051c9bf000080fb00e20f500009003200d2
:10164800e30f500018003200e10f500029003a0063
:10165800c02d28003049880020012000504988000a
:101668002700370050c9bf000080fb000000400081
:101678008000780040392800008040001000780081
:1016880030498800304980000080e8001040780028
:101698002ae9b70030498000630040001040780014
:1016a8002be9b7001600370050c9bf00e24f5000c1
:1016b8000d003e0050c9bf000080fb000000400044
:1016c8008000780060392800008040001000780011
:1016d8003049880030498000104078000080fb00c5
:1016e80050498800060037000040eb0028e9b700a1
:1016f800030037000040eb0028e9b70000000000b5
:101708000080fa00000006000200fa000040eb002a
:1017180056e9b7000040eb0057e9b7004ec9bf00d3
:101728007f4060000080fb00e10f50000f00320096
:10173800e20f50000f003200e00f500037003a006f
:1017480028e9a80056c9bf000004a00056e9b70060
:10175800b0498000e10f50002b003a0056c9bf0085
:101768000014a00056e9b7002c00370028e9a800ab
:101778002a00370028e9a800219520009140780028
:1017880000c8b30000c06000e04f500008003a00f5
:1017980052c9bf006f4060000080fb00800040001d
:1017a800c091200000804000100f7800070037002b
:1017b80052c9bf006f4060000080fb0080004000fd
:1017c8000092200000804000100f78001e00780072
:1017d800900078000000280000806000e00f5000b2
:1017e8000b0032001e0078009000780000402000b6
:1017f80000806000e00f50000700320010c0b30006
:1018080056e9b70005003700000000000300370064
:10181800000000000100370000000000414980007e
:101828000008200000806000e00f50000500320032
:1018380060952000304988002809a80020c0b3001e
:101848002ae9b7000080fa00000006000000fa004c
:101858005025800062006000e00f50000e0032004a
:10186800c04880009040900000c8b30080cf50006e
:1018780008003a00004980009040900040c8b3003a
:1018880080cf500003003a00c1488000c0c8b300b0
:1018980090409800aa24a90000082000502488003d
:1018a8000080fa00000006000000fa008284a80008
:1018b800000120005024880010002000c049880042
:1018c8000001eb008000eb0050072000a505070091
:1018d8000080fa00000006000000fa000000eb009b
:1018e800c04988000001eb008000eb0040072000a1
:1018f8009c0507008284a9000001200000248800bc
:101908000080fa00000006000200fa00d0c2b3000e
:1019180042e9b7003ac9bf008080fb00b0ff2f0042
:1019280000806000e00f500030003a003ac9bf0064
:101938000080fb004200de00004078000080fb00d1
:10194800c200dd0000a0200000804000c0488800e0
:10195800c0488000d0488800a1912000a0912000b4
:101968001040780080487800c048800090007800d7
:1019780000c023008080600000402300808f50005a
:1019880018003a000040eb00004f78000d003700c7
:101998001e4078008080fb00e0942000808040009a
:1019a800c0488000100090001040780080487800ff
:1019b800c0488000900090008100e8001100980065
:1019c8001e4fe8001e407800e74f5000f0ff360039
:1019d800c0488000e1942000110098000c00070026
:1019e8000900370042000700070037003ac9bf0066
:1019f8008080fb00b0ff2f0000806000e80f5000df
:101a080001003a00530007000080fa0000000600b9
:101a18000000fa000040eb0024e9b7000000eb00ea
:101a2800204a88000000eb00504a88000000eb00c4
:101a3800604a88000000eb00e04988000040eb00a5
:101a480025e9b70001498000004980001040900056
:101a58000074a1009040980001922000009220009c
:101a680010407800804878000149800000498000d3
:101a7800104090000074a10090409800019220004e
:101a8800009220001040780080487800d1488000fb
:101a9800d0488000104090000074a1009040980049
:101aa8000040eb0028e9b7000000eb00504988002f
:101ab8000040eb002ee9b7002fc9bf00604060006e
:101ac8002fe9b70030c9bf006040600030e9b700b7
:101ad8006b0007000001eb008000eb0030002000e5
:101ae8002005070080fd07000080fa0000000600be
:101af8000000fa0025c9bf00e24f500002003a007a
:101b080004fe0700110037000040eb0025e9b7008c
:101b1800e0498000e00f50000a003a00d1488000f8
:101b280080c0b30080487800d0488000e19420004d
:101b380011009800d1488000c0c8b30090409800b8
:101b4800020037000000eb00e04988000080fa003e
:101b5800000006000200fa0000498000100078002a
:101b68004e00de0061406000004f780001922000c6
:101b7800009220001040780080487800a04880003b
:101b8800e80f50000b003a0050c9bf000080fb006e
:101b9800b0248800b0248000e00f50000300320019
:101ba80000012000a0488800020037004000200003
:101bb800a048880025c9bf00e14f500016003a0030
:101bc80000498000619520001100980095fd0700ec
:101bd80024c9bf00e24f500004003a0001498000c8
:101be80040c8b30090409800230037001e4078009a
:101bf800e04f500004003a000149800080ccb30057
:101c0800904098001c0037000149800080c8b3004c
:101c18009040980018003700e19220009140780029
:101c280000c8b30000c06000e04f50001000320050
:101c380031c9bf008080fb0032c9bf000080fb00b3
:101c48004800dd0001007000e00f5000070032007e
:101c580031c9bf008080fb0032c9bf000080fb0093
:101c68004800dd0001007000000001002ee9a90015
:101c78000040eb0025e9b7000080fa0000000600ec
:101c88000000fa004ec9bf000046b200e04f500005
:101c98003f003a004fc9bf000080fb00cf80de0044
:101ca800b200200003002000820f5000838f5800ec
:101cb80039003e00006001001a0037001b003700a1
:101cc80037003700190037003500370006003700a5
:101cd80009003700290037000b00370008003700db
:101ce800140037001d00370028e9a80080002000f4
:101cf800a04888002b00370045fe07002900370060
:101d08000afe07002700370060912000304988004c
:101d18002809a80010c0b3002ae9b70028e9a800dc
:101d28002000370078fe07001e0037001f0007005c
:101d38001c00370052c9bf008080fb007091200052
:101d480000804000304988002809a80010c0b3006e
:101d58002ae9b70028e9a8001200370028e9a800f6
:101d680052c9bf000081fb0050c9bf00719120001b
:101d780081004100804878000a0037000001eb002c
:101d88008000eb00200020007604070005003700e3
:101d980000000000030037000000000001003700c9
:101da800000000000080fa00000006000600fa00ab
:101db80050c9bf00e14f50000d003a004ec9bf00a6
:101dc8007f406000e04f500009003a0028e9a80071
:101dd8004fc9bf00e34f500003003a001000200035
:101de800b0498800020037000000eb00b0498800c5
:101df80050c9bf00e04f5000be003a004ec9bf00b6
:101e08007f406000e24f5000ba003a0052c9bf005c
:101e18006f406000e04f5000b600320052c9bf006a
:101e28006f4060000080fb00e10f5000b1003c00f3
:101e3800a148800000022000808f5000ad003a00c9
:101e480028e9a800219520009140780000c8b30037
:101e580000c06000e04f50000f003a0052c9bf00b8
:101e68006f4060000080fb0080004000c0912000af
:101e780000804000100f780052c9bf006f4060001a
:101e88008080fb0000942000008040001040780013
:101e9800404798000e00370052c9bf006f406000ed
:101ea8000080fb008000400000922000008040007d
:101eb800100f780052c9bf006f4060008080fb009f
:101ec800e0932000008040001040780040479800d0
:101ed800219520009140780000c8b30000c0600040
:101ee800e04f500009003a0052c9bf006f4060003f
:101ef8000080fb009e00780000014000c091200097
:101f080000004100010878000800370052c9bf00ee
:101f18006f4060000080fb009e00780000014000d8
:101f28000092200000004100010878004fc9bf005e
:101f3800e34f500024003a001e007800900078001b
:101f48000000280000806000e00f500017003200f9
:101f5800219520009140780000c8b30000c06000bf
:101f6800e04f500009003a0052c9bf006f406000be
:101f78008080fb00009420008080400011407800a1
:101f88000014a000804878000800370052c9bf003c
:101f98006f4060008080fb00e0932000808040005c
:101fa800114078000014a000804878001e007800d6
:101fb8009040900040c8b30000c070009e007800b8
:101fc800904098004b0037004e40900062406000ff
:101fd800e04f500006003a001e007800900078009c
:101fe8000000280000806000e00f50002900320047
:101ff800219520009140780000c8b30000c060001f
:10200800e04f50000a003a0052c9bf006f4060001c
:102018008080fb00009420000081400092407800fe
:10202800d0cfb30000c06000004978000900370035
:1020380052c9bf006f4060008080fb00e093200021
:102048000081400092407800d0cfb30000c060000b
:10205800004978001e00780010409000b047b20098
:102068009e007800904098001e00780090409000f4
:1020780000c4b30000c070009e0078009040980033
:10208800220020009e00780050002000b5030700c1
:102098000b0037001e00780010409000b047b200d7
:1020a8009e007800904098001e00780090409000b4
:1020b80000c4b30000c070009e00780090409800f3
:1020c800a14a200052c9bf006f4060000080fb0099
:1020d8000000400000804000100798001e0090009b
:1020e80090407800d0cfb30000c060009e00900000
:1020f800804878000080fa00000006000000fa001e
:10210800c9c2a800e0c2a900f0c2a900f502a8004f
:1021180003000700fef907002e000700fdff370047
:102128000200fa0080252000000f780044a7a800cc
:10213800000000001e00ea001e0070004f00de00d4
:10214800004078001e0fe900e04f5000f9ff3a0008
:1021580077f90700020007000080fa000000060077
:102168000000fa00e0c2a900f0c2a900c9c2a80094
:10217800d962a8000000eb00f04a88000000eb00dc
:10218800004b880010002000104b880090cab30054
:10219800c0e8b70000802a0021002000104688000f
:1021a8002146880010c0b3000ee9b7000040eb00dc
:1021b800c6e8b7000080eb008080eb00504888003c
:1021c800614888000040eb0008e9b7000080fa0089
:1021d800000006000000fa00104b8000e00f5000dd
:1021e800010032000e000700a0488000ff0f5000d9
:1021f800060036004024800062006000e00f5000b6
:1022080004003a00870007000300370000000000c0
:1022180001003700000000000080fa0000000600fe
:102228000000fa0090488000e00f500002003a00d9
:102238000071220090488800904880000000e90062
:10224800904888004024800062006000e00f500041
:102258001e00320090488000e00f50006f003a00e6
:10226800a1178000001020008080600010c0b3001b
:10227800e08f5000010032000040eb000080fb00be
:10228800610060004800dd00a2178000f1ef2f0018
:102298008100610000807000a0178800a0178000ee
:1022a8004800de00614060000080fb0061006000c3
:1022b8004600dd0022178000f1fb2f00810061003d
:1022c800008070002017880054003700a048800064
:1022d800e00f500003003a00f502a900e4c2a9008b
:1022e8004e003700a0488000e10f500003003a007c
:1022f800f502a800e4c2a80048003700a048800002
:10230800e20f500003003a00f502a800e4c2a90059
:1023180042003700a0488000e40f500003003a0054
:10232800f502a900e4c2a8003c003700a0488000dc
:10233800f00f500014003a0090488000e00f500061
:1023480036003a00a117800000102000808060004d
:1023580010c0b300e08f5000010032000040eb00d5
:102368000080fb00610060004800dd00a2178000cb
:10237800f1ef2f008100610000807000a017880035
:10238800e4c2a90025003700a1488000000220000f
:10239800808f500021003a0090488000e00f5000e4
:1023a8001e003a00a1178000001020008080600005
:1023b80010c0b300e08f5000010032000040eb0075
:1023c8000080fb00610060004800dd00a21780006b
:1023d800f1ef2f008100610000807000a0178800d5
:1023e800a1178000001020008080600010c0b3009a
:1023f800e08f5000010032000040eb000080fb003d
:10240800610060004600dd0022178000f1fb2f000c
:102418008100610000807000201788000080fa00a9
:10242800000006000a00fa00c6c8bf00e04f5000ce
:102438003b003a00004b8000e00f500006003200dd
:10244800004b8000900078000000280000806000a9
:10245800e00f500011023a00f04a8000e00f5000ef
:1024680006003200f04a8000900078000000280042
:1024780000806000e00f500008023a000040eb00c6
:10248800004f78000b0037001e4078000081fb00e9
:102498009e4178008380fb00008820000080400077
:1024a80010407800018020008100410080487800b9
:1024b8001e4fe800f0c3b3009e40780080cf500064
:1024c800f1ff360003c4b300028820008040eb000f
:1024d80010c0b300dcf90700f04a880010c0b30050
:1024e800c6e8b7000040eb00004f7800070037004f
:1024f8001e4078008080fb0000842000808040001f
:102508000040eb00804878001e4fe800f0c3b3009d
:102518009e40780080cf5000f5ff3600df0137007d
:1025280000c8bf000080fb006101b900e0ff2f0078
:10253800f1ff2f0002004000838048006200200065
:1025480003002000820f5000838f5800d3013e0003
:102558000060010006003700760037008c00370065
:102568009e003700160137001d013700b9013700fa
:1025780020c0b30040e8b70080c3b30041e8b7000b
:1025880020c0b30042e8b70010c0b30043e8b7006a
:1025980044c8bf006040600044e8b70045c8bf00b9
:1025a800604060004041b30045e8b70046c8bf003e
:1025b8006040600046e8b70047c8bf006040600060
:1025c80047e8b700124680002346800000c02e006e
:1025d800f1ff2f000200400083804800f20f200026
:1025e800820160008284200012417800604161000d
:1025f800034171000001fd0048e8b7000001fd003b
:10260800c801de0092842000124178006041610018
:10261800034171000200780049e8b700f20f20007a
:1026280082816000a284200012417800604161002c
:1026380003417100020078004ae8b700c808de00cc
:102648004bc8bf0060406000014070004be8b70015
:1026580000c0eb004ce8b7000ec9bf00e04f5000c7
:1026680022003a0030c0b3004ce8b7004dc8bf00a4
:10267800e040600080cfb30000c070004de8b700b4
:102688004ec8bf00e0406000b0cab30000c0700090
:102698004ee8b7004fc8bf00604060000014a000bb
:1026a8004fe8b70050c8bf006040600050e8b7006e
:1026b80051c8bf00604060000034a00051e8b70076
:1026c80052c8bf006040600052e8b70053c8bf005e
:1026d8006040600053e8b70054c8bf006040600025
:1026e80054e8b70000c0eb0055e8b700004b800085
:1026f800e00f500006003200004b80009000780088
:102708000000280000806000e00f500060013a00df
:1027180003c4b3000284200011c0b30010c0b3008a
:1027280049f90700004b88000040eb00c6e8b700f5
:102738005a01370001c8bf00e04f500009003a00b5
:10274800a0cab300c0e8b70080bf2a00210020005b
:1027580010468800214688000040eb000ee9b700cb
:102768000800370090cab300c0e8b70000802a000c
:1027780021002000104688002146880010c0b300c0
:102788000ee9b7000040eb00c6e8b7004301370088
:1027980050c0b300c7e8b700050037004101070083
:1027a8005bf80700c7c8bf000040e800c7e8b700eb
:1027b800c7c8bf008080fb00c0c8bf000080fb0006
:1027c8000000e800808f5000f4ff350061c7a900c1
:1027d8000040eb00c6e8b7003001370052488000df
:1027e800634880000080eb008080eb00800f510080
:1027f800818f590014003a0012802000124178009d
:102808008281fb0022802000124178000281fb00b7
:102818004811dd00030171000200780032802000b9
:10282800124178008281fb0042802000124178002a
:102838000281fb004811dd0003017100820078006d
:1028480050488800614888001280200012417800b2
:102858008281fb0022802000124178000281fb0067
:102868004811dd0003017100020078003280200069
:10287800124178008281fb004280200012417800da
:102888000281fb004811dd0003017100820078001d
:102898005248800063488000820f5000838f5800a0
:1028a80044003a000040eb00004f78003b0037003e
:1028b80005c8bf000080fb00810320008080500015
:1028c8002000200000017800110009008200d800d3
:1028d800800078009e4178000380fb000080400063
:1028e8002007980008c9bf008080fb0005c8bf000a
:1028f8000080fb008203200000015100200020001e
:1029080080017800811f7800110009000301d800b8
:1029180001017800cf007800000178009e4178001e
:102928000380fb00000041006400400000014000fb
:102938000080200000004100904178000381fb00e6
:10294800104090000080fb004800dd00020070008d
:102958000001780081804000808c200000804000c9
:102968000208780008c9bf000040e80008e9b7007d
:10297800504880006148800061004000e0804800c5
:10298800504888006148880008c9bf00fc4f5000c3
:1029980001003a00e60007001e4fe80005c8bf0026
:1029a8000080fb000000d100004078009e4f5000de
:1029b800bfff3e000040eb00c6e8b700b700370095
:1029c800db0007000080eb008080eb0050488800a7
:1029d800614888000040eb00c6e8b700af00370048
:1029e800004b8000e00f500006003200004b8000d2
:1029f800900078000000280000806000e00f500080
:102a0800a5003a0070c0b30040e8b700128020006b
:102a1800124178008281fb00228020001241780058
:102a28000281fb004811dd000301710002007800fb
:102a380032802000124178008281fb004280200011
:102a4800124178000281fb004811dd00030171008a
:102a580082007800f20f20008201600012842000ba
:102a68001241780060416100034171000001fd00de
:102a780041e8b7000001fd00c801de002284200003
:102a88001241780060416100034171000200780042
:102a980042e8b700f20f20008281600032842000f3
:102aa8001241780060416100034171000200780022
:102ab80043e8b700c808de0044c8bf0060406000b3
:102ac8000140700044e8b70005c8bf0045e8b700fa
:102ad8000040eb00004f78004f00370012802000c4
:102ae800124178008281fb00228020001241780088
:102af8000281fb004811dd0003017100020078002b
:102b080032802000124178008281fb004280200040
:102b1800124178000281fb004811dd0003017100b9
:102b2800820078001e4178000281fb00030020002b
:102b38000000410081804900b40007003007980078
:102b4800410798009e4078000180fb00fc0040008f
:102b580005c8bf000080fb000000d10000407800dd
:102b68000080fb00008050003e019000640040009f
:102b7800800040000084200000804000f10f200009
:102b88008101610090407800e0c0600083c070005f
:102b9800014878004811de0090409000e0c06000d5
:102ba80082c07000114098000040eb00104f980060
:102bb8001e4178000280fb00fd00400005c8bf00f0
:102bc8000080fb000000d100004078000080fb007e
:102bd800008050004e0190006400400080004000da
:102be8000084200000804000f10f20008101610076
:102bf80090407800e0c0600083c070000148780011
:102c08004811de0090409000e0c0600082c0700073
:102c1800114098001ecfe80005c8bf000080fb00e7
:102c28000000d100004078009e4f5000abff3e00ee
:102c380003c4b3000284200011c0b30010c0b30065
:102c480001f80700004b88000040eb00c6e8b70019
:102c5800120037000000eb00a02488000000eb0001
:102c68001007980004003700000000001e009000c4
:102c78000000e800100798001e009000e10f4000d7
:102c8800f9ff3a000000fe000000000003003700d2
:102c98000000000001003700000000000080fa007a
:102ca800000006000400fa006000b800008fbe00b3
:102cb800c7c8bf000081fb00030020004a18dd00e0
:102cc800c610de00810070004a10dd00008fbe00d3
:102cd80020042400003b88002e4090000080fb0068
:102ce800a00288001e0078008080eb000108bb006d
:102cf8001000fc0050052000303b8800a00a20008e
:102d0800303b880061e7a8000000000000000000d8
:102d180000000000013b80000000280000806000e7
:102d2800e00f5000fbff3a000080fa0000000600a8
:102d38000600fa000000eb00000f780030002400c5
:102d4800003b88002b003700524880006348800011
:102d580008c9bf000080fb000100200000005100ee
:102d68008180590010079800210798002e009000d4
:102d7800a00288001e00780080004000808c20009f
:102d880000804000900078001e0090000108bb0001
:102d98001e00e80080004000808c20000080400079
:102da800900078001e0090000188bb001e8fe8008c
:102db8001000fc0050052000303b8800a00a2000cd
:102dc800303b880061e7a800000000000000000018
:102dd80000000000013b8000000028000080600027
:102de800e00f5000fbff3a0008c9bf0000c0e9002f
:102df80008e9b70008c9bf00e04f5000d2ff3a0009
:102e080061c7a9000080fa00000006000a00fa0065
:102e18003007980041079800a0028000000f780052
:102e28006600470010009000a00288003e00900055
:102e3800ce009000000078001080ba0020079800ab
:102e48003e009000ce009000000078001000ba000c
:102e5800100798001e007800a00288001e0090004d
:102e6800ae0090000080fa00000006000000fa00a2
:102e78000080fa00000006000000fa000080fa0056
:102e8800000006000000fa000080fa0000000600ba
:102e98000000fa000080fa00000006000000fa00b6
:102ea800640007000080fa00000006000000fa0035
:102eb8000080fa00000006000000fa00d1c1b3004b
:102ec80010c0b30043f7070003c4b3000288200012
:102ed8008040eb0010c0b3005bf70700f04a8800a1
:102ee8000080fa00000006000000fa00b0498000e7
:102ef800e10f500019003a00c0498000e10f50006e
:102f080016003a00dcff07008824a9000000eb0047
:102f1800c049880000e1200080488800804880007f
:102f28000000e9008048880080488000e00f5000d9
:102f3800faff3a009444a800807020008048880076
:102f4800804880000000e9008048880080488000b0
:102f5800e00f5000faff3a009444a9000080fa00fc
:102f6800000006000600fa00000f7800110798001c
:102f7800220798001e00780021072000810f5000ca
:102f88002800320021072000810f50000a003c0071
:102f9800e20f50001d003200e20f500003003c0019
:102fa800e10f5000170032001f003700e30f5000f8
:102fb800180032001c00370041072000810f500024
:102fc8000e00320041072000810f50000700350035
:102fd80051072000810f500006003200f1ff270042
:102fe800810f50000d0032000f003700a5ff0700c9
:102ff8000d0037009dff07000b0037009eff0700fc
:1030080009003700acff070007003700a7ff0700db
:1030180005003700a1ff0700030037009cff0700e9
:103028000100370000000000100020000080fa00b6
:10303800000006000000fa004ec9bf007f40600093
:10304800e14f50005c003a0052c9bf00e04f500009
:103058005b003a004fc9bf00e64f50001f003a001e
:1030680051c9bf000080fb0021022000810f5000e1
:103078001000320031022000810f5000140032008d
:1030880011022000810f500014003a0016c9bf0039
:10309800e14f500010003a00003028003049880005
:1030a800900020005049880000ccb30028e9b70000
:1030b8000a0037006037280030498800d001200016
:1030c8005049880000ccb30028e9b7000300370056
:1030d8000000000001003700000000004ec9bf00da
:1030e80002c6b3008240600000c2b30080cf500027
:1030f80035003a004fc9bf000080fb006101b900ec
:103108000080eb008080eb000200400083804800d4
:10311800a200200003002000820f5000838f580077
:103128002a003e000060010028003700090037002f
:10313800140037002500370024003700230037002b
:103148002200370021003700200037000800370030
:1031580013003700409620003049880010002000f6
:103168005049880010ccb30028e9b7001700370091
:1031780000c8b30028e9b70051c9bf0064e9b70027
:1031880012003700509620003049880010002000b7
:103198005049880010c8b30028e9b7000b00370071
:1031a80000c8b30028e9b70050c9bf0065e9b700f7
:1031b8000000000005003700000000000300370091
:1031c8000000000001003700000000000080fa0045
:0431d80000000600ed
:020000040000fa
:1031dc00140900004a00000080000000000a0000f2
:1031ec0010000000800000006409000002000000d4
:1031fc008000000000080000c000000080000000fb
:10320c005e090000060000008200000000000000c3
:10321c0000010000c0080000540000008000000005
:04322c00000000009e
:020000040000fa
:020000040005f5
:0457f8009e6b0000a4
:020000040000fa
:020000040005f5
:0457fc007f3e0000ec
:00000001FF
